{
  "contractName": "GreenLand",
  "abi": [
    {
      "anonymous": false,
      "inputs": [
        {
          "indexed": true,
          "internalType": "uint256",
          "name": "_transactionId",
          "type": "uint256"
        }
      ],
      "name": "transactionCreated",
      "type": "event"
    },
    {
      "anonymous": false,
      "inputs": [
        {
          "indexed": true,
          "internalType": "uint256",
          "name": "_userId",
          "type": "uint256"
        }
      ],
      "name": "userCreated",
      "type": "event"
    },
    {
      "inputs": [],
      "name": "transactionCount",
      "outputs": [
        {
          "internalType": "uint256",
          "name": "",
          "type": "uint256"
        }
      ],
      "stateMutability": "view",
      "type": "function",
      "constant": true
    },
    {
      "inputs": [
        {
          "internalType": "uint256",
          "name": "",
          "type": "uint256"
        }
      ],
      "name": "transactionList",
      "outputs": [
        {
          "internalType": "string",
          "name": "username",
          "type": "string"
        },
        {
          "internalType": "string",
          "name": "transaction_hash",
          "type": "string"
        },
        {
          "internalType": "string",
          "name": "upload_date",
          "type": "string"
        }
      ],
      "stateMutability": "view",
      "type": "function",
      "constant": true
    },
    {
      "inputs": [],
      "name": "userCount",
      "outputs": [
        {
          "internalType": "uint256",
          "name": "",
          "type": "uint256"
        }
      ],
      "stateMutability": "view",
      "type": "function",
      "constant": true
    },
    {
      "inputs": [
        {
          "internalType": "uint256",
          "name": "",
          "type": "uint256"
        }
      ],
      "name": "userList",
      "outputs": [
        {
          "internalType": "string",
          "name": "username",
          "type": "string"
        },
        {
          "internalType": "string",
          "name": "password",
          "type": "string"
        },
        {
          "internalType": "string",
          "name": "phone",
          "type": "string"
        },
        {
          "internalType": "string",
          "name": "email",
          "type": "string"
        },
        {
          "internalType": "string",
          "name": "buyer_seller_user_type",
          "type": "string"
        }
      ],
      "stateMutability": "view",
      "type": "function",
      "constant": true
    },
    {
      "inputs": [
        {
          "internalType": "string",
          "name": "uname",
          "type": "string"
        },
        {
          "internalType": "string",
          "name": "pass",
          "type": "string"
        },
        {
          "internalType": "string",
          "name": "phone",
          "type": "string"
        },
        {
          "internalType": "string",
          "name": "em",
          "type": "string"
        },
        {
          "internalType": "string",
          "name": "user_type",
          "type": "string"
        }
      ],
      "name": "saveUser",
      "outputs": [],
      "stateMutability": "nonpayable",
      "type": "function"
    },
    {
      "inputs": [],
      "name": "getUserCount",
      "outputs": [
        {
          "internalType": "uint256",
          "name": "",
          "type": "uint256"
        }
      ],
      "stateMutability": "view",
      "type": "function",
      "constant": true
    },
    {
      "inputs": [
        {
          "internalType": "string",
          "name": "uname",
          "type": "string"
        },
        {
          "internalType": "string",
          "name": "thash",
          "type": "string"
        },
        {
          "internalType": "string",
          "name": "ud",
          "type": "string"
        }
      ],
      "name": "saveTransaction",
      "outputs": [],
      "stateMutability": "nonpayable",
      "type": "function"
    },
    {
      "inputs": [
        {
          "internalType": "uint256",
          "name": "i",
          "type": "uint256"
        },
        {
          "internalType": "string",
          "name": "status",
          "type": "string"
        }
      ],
      "name": "updateStatus",
      "outputs": [],
      "stateMutability": "nonpayable",
      "type": "function"
    },
    {
      "inputs": [],
      "name": "getTransactionCount",
      "outputs": [
        {
          "internalType": "uint256",
          "name": "",
          "type": "uint256"
        }
      ],
      "stateMutability": "view",
      "type": "function",
      "constant": true
    },
    {
      "inputs": [
        {
          "internalType": "uint256",
          "name": "i",
          "type": "uint256"
        }
      ],
      "name": "getUsername",
      "outputs": [
        {
          "internalType": "string",
          "name": "",
          "type": "string"
        }
      ],
      "stateMutability": "view",
      "type": "function",
      "constant": true
    },
    {
      "inputs": [
        {
          "internalType": "uint256",
          "name": "i",
          "type": "uint256"
        }
      ],
      "name": "getPassword",
      "outputs": [
        {
          "internalType": "string",
          "name": "",
          "type": "string"
        }
      ],
      "stateMutability": "view",
      "type": "function",
      "constant": true
    },
    {
      "inputs": [
        {
          "internalType": "uint256",
          "name": "i",
          "type": "uint256"
        }
      ],
      "name": "getPhone",
      "outputs": [
        {
          "internalType": "string",
          "name": "",
          "type": "string"
        }
      ],
      "stateMutability": "view",
      "type": "function",
      "constant": true
    },
    {
      "inputs": [
        {
          "internalType": "uint256",
          "name": "i",
          "type": "uint256"
        }
      ],
      "name": "getEmail",
      "outputs": [
        {
          "internalType": "string",
          "name": "",
          "type": "string"
        }
      ],
      "stateMutability": "view",
      "type": "function",
      "constant": true
    },
    {
      "inputs": [
        {
          "internalType": "uint256",
          "name": "i",
          "type": "uint256"
        }
      ],
      "name": "getUserType",
      "outputs": [
        {
          "internalType": "string",
          "name": "",
          "type": "string"
        }
      ],
      "stateMutability": "view",
      "type": "function",
      "constant": true
    },
    {
      "inputs": [
        {
          "internalType": "uint256",
          "name": "i",
          "type": "uint256"
        }
      ],
      "name": "getBuyerSeller",
      "outputs": [
        {
          "internalType": "string",
          "name": "",
          "type": "string"
        }
      ],
      "stateMutability": "view",
      "type": "function",
      "constant": true
    },
    {
      "inputs": [
        {
          "internalType": "uint256",
          "name": "i",
          "type": "uint256"
        }
      ],
      "name": "getTransactionHash",
      "outputs": [
        {
          "internalType": "string",
          "name": "",
          "type": "string"
        }
      ],
      "stateMutability": "view",
      "type": "function",
      "constant": true
    },
    {
      "inputs": [
        {
          "internalType": "uint256",
          "name": "i",
          "type": "uint256"
        }
      ],
      "name": "getDate",
      "outputs": [
        {
          "internalType": "string",
          "name": "",
          "type": "string"
        }
      ],
      "stateMutability": "view",
      "type": "function",
      "constant": true
    }
  ],
  "bytecode": "0x608060405260008055600060025534801561001957600080fd5b50612124806100296000396000f3fe608060405234801561001057600080fd5b5060043610610128576000357c0100000000000000000000000000000000000000000000000000000000900480636ce3d81a116100bf578063b77bf6001161008e578063b77bf60014610237578063d1b34dd814610240578063e9a6f34614610253578063f18d18cc14610266578063f38c6bb61461027957600080fd5b80636ce3d81a146101e5578063972fe8bc146101f85780639f4216e81461020b578063b5cb15f71461022f57600080fd5b80632b57298b116100fb5780632b57298b146101a25780632e7700f0146101b55780632e7d44b5146101bd5780635908b493146101d057600080fd5b806304ef5b211461012d57806307973ccf14610158578063111343841461016f57806313f58f711461018f575b600080fd5b61014061013b366004611ccb565b61028c565b60405161014f93929190611d31565b60405180910390f35b61016160005481565b60405190815260200161014f565b61018261017d366004611ccb565b610446565b60405161014f9190611d74565b61018261019d366004611ccb565b61062a565b6101826101b0366004611ccb565b610932565b600254610161565b6101826101cb366004611ccb565b610b16565b6101e36101de366004611e4a565b610d90565b005b6101826101f3366004611ccb565b610e50565b610182610206366004611ccb565b611032565b61021e610219366004611ccb565b61133a565b60405161014f959493929190611ed2565b600054610161565b61016160025481565b6101e361024e366004611f3f565b611610565b6101e3610261366004611f86565b61163a565b610182610274366004611ccb565b61173e565b610182610287366004611ccb565b6119b8565b6003602052600090815260409020805481906102a790612058565b80601f01602080910402602001604051908101604052809291908181526020018280546102d390612058565b80156103205780601f106102f557610100808354040283529160200191610320565b820191906000526020600020905b81548152906001019060200180831161030357829003601f168201915b50505050509080600101805461033590612058565b80601f016020809104026020016040519081016040528092919081815260200182805461036190612058565b80156103ae5780601f10610383576101008083540402835291602001916103ae565b820191906000526020600020905b81548152906001019060200180831161039157829003601f168201915b5050505050908060020180546103c390612058565b80601f01602080910402602001604051908101604052809291908181526020018280546103ef90612058565b801561043c5780601f106104115761010080835404028352916020019161043c565b820191906000526020600020905b81548152906001019060200180831161041f57829003601f168201915b5050505050905083565b606060006003600084815260200190815260200160002060405180606001604052908160008201805461047890612058565b80601f01602080910402602001604051908101604052809291908181526020018280546104a490612058565b80156104f15780601f106104c6576101008083540402835291602001916104f1565b820191906000526020600020905b8154815290600101906020018083116104d457829003601f168201915b5050505050815260200160018201805461050a90612058565b80601f016020809104026020016040519081016040528092919081815260200182805461053690612058565b80156105835780601f1061055857610100808354040283529160200191610583565b820191906000526020600020905b81548152906001019060200180831161056657829003601f168201915b5050505050815260200160028201805461059c90612058565b80601f01602080910402602001604051908101604052809291908181526020018280546105c890612058565b80156106155780601f106105ea57610100808354040283529160200191610615565b820191906000526020600020905b8154815290600101906020018083116105f857829003601f168201915b50505091909252505050602001519392505050565b60606000600160008481526020019081526020016000206040518060a001604052908160008201805461065c90612058565b80601f016020809104026020016040519081016040528092919081815260200182805461068890612058565b80156106d55780601f106106aa576101008083540402835291602001916106d5565b820191906000526020600020905b8154815290600101906020018083116106b857829003601f168201915b505050505081526020016001820180546106ee90612058565b80601f016020809104026020016040519081016040528092919081815260200182805461071a90612058565b80156107675780601f1061073c57610100808354040283529160200191610767565b820191906000526020600020905b81548152906001019060200180831161074a57829003601f168201915b5050505050815260200160028201805461078090612058565b80601f01602080910402602001604051908101604052809291908181526020018280546107ac90612058565b80156107f95780601f106107ce576101008083540402835291602001916107f9565b820191906000526020600020905b8154815290600101906020018083116107dc57829003601f168201915b5050505050815260200160038201805461081290612058565b80601f016020809104026020016040519081016040528092919081815260200182805461083e90612058565b801561088b5780601f106108605761010080835404028352916020019161088b565b820191906000526020600020905b81548152906001019060200180831161086e57829003601f168201915b505050505081526020016004820180546108a490612058565b80601f01602080910402602001604051908101604052809291908181526020018280546108d090612058565b801561091d5780601f106108f25761010080835404028352916020019161091d565b820191906000526020600020905b81548152906001019060200180831161090057829003601f168201915b50505091909252505050608001519392505050565b606060006003600084815260200190815260200160002060405180606001604052908160008201805461096490612058565b80601f016020809104026020016040519081016040528092919081815260200182805461099090612058565b80156109dd5780601f106109b2576101008083540402835291602001916109dd565b820191906000526020600020905b8154815290600101906020018083116109c057829003601f168201915b505050505081526020016001820180546109f690612058565b80601f0160208091040260200160405190810160405280929190818152602001828054610a2290612058565b8015610a6f5780601f10610a4457610100808354040283529160200191610a6f565b820191906000526020600020905b815481529060010190602001808311610a5257829003601f168201915b50505050508152602001600282018054610a8890612058565b80601f0160208091040260200160405190810160405280929190818152602001828054610ab490612058565b8015610b015780601f10610ad657610100808354040283529160200191610b01565b820191906000526020600020905b815481529060010190602001808311610ae457829003601f168201915b50505091909252505050604001519392505050565b60606000600160008481526020019081526020016000206040518060a0016040529081600082018054610b4890612058565b80601f0160208091040260200160405190810160405280929190818152602001828054610b7490612058565b8015610bc15780601f10610b9657610100808354040283529160200191610bc1565b820191906000526020600020905b815481529060010190602001808311610ba457829003601f168201915b50505050508152602001600182018054610bda90612058565b80601f0160208091040260200160405190810160405280929190818152602001828054610c0690612058565b8015610c535780601f10610c2857610100808354040283529160200191610c53565b820191906000526020600020905b815481529060010190602001808311610c3657829003601f168201915b50505050508152602001600282018054610c6c90612058565b80601f0160208091040260200160405190810160405280929190818152602001828054610c9890612058565b8015610ce55780601f10610cba57610100808354040283529160200191610ce5565b820191906000526020600020905b815481529060010190602001808311610cc857829003601f168201915b50505050508152602001600382018054610cfe90612058565b80601f0160208091040260200160405190810160405280929190818152602001828054610d2a90612058565b8015610d775780601f10610d4c57610100808354040283529160200191610d77565b820191906000526020600020905b815481529060010190602001808311610d5a57829003601f168201915b50505050508152602001600482018054610a8890612058565b604080516060810182528481526020808201859052818301849052600254600090815260038252929092208151805192939192610dd09284920190611c32565b506020828101518051610de99260018501920190611c32565b5060408201518051610e05916002840191602090910190611c32565b50506002546040519091507f61423a8049ce29381d516b8cbe5a70bde2e01f2e8d96fda22a3d43dd032413ec90600090a260028054906000610e46836120ac565b9190505550505050565b6060600060036000848152602001908152602001600020604051806060016040529081600082018054610e8290612058565b80601f0160208091040260200160405190810160405280929190818152602001828054610eae90612058565b8015610efb5780601f10610ed057610100808354040283529160200191610efb565b820191906000526020600020905b815481529060010190602001808311610ede57829003601f168201915b50505050508152602001600182018054610f1490612058565b80601f0160208091040260200160405190810160405280929190818152602001828054610f4090612058565b8015610f8d5780601f10610f6257610100808354040283529160200191610f8d565b820191906000526020600020905b815481529060010190602001808311610f7057829003601f168201915b50505050508152602001600282018054610fa690612058565b80601f0160208091040260200160405190810160405280929190818152602001828054610fd290612058565b801561101f5780601f10610ff45761010080835404028352916020019161101f565b820191906000526020600020905b81548152906001019060200180831161100257829003601f168201915b5050509190925250509051949350505050565b60606000600160008481526020019081526020016000206040518060a001604052908160008201805461106490612058565b80601f016020809104026020016040519081016040528092919081815260200182805461109090612058565b80156110dd5780601f106110b2576101008083540402835291602001916110dd565b820191906000526020600020905b8154815290600101906020018083116110c057829003601f168201915b505050505081526020016001820180546110f690612058565b80601f016020809104026020016040519081016040528092919081815260200182805461112290612058565b801561116f5780601f106111445761010080835404028352916020019161116f565b820191906000526020600020905b81548152906001019060200180831161115257829003601f168201915b5050505050815260200160028201805461118890612058565b80601f01602080910402602001604051908101604052809291908181526020018280546111b490612058565b80156112015780601f106111d657610100808354040283529160200191611201565b820191906000526020600020905b8154815290600101906020018083116111e457829003601f168201915b5050505050815260200160038201805461121a90612058565b80601f016020809104026020016040519081016040528092919081815260200182805461124690612058565b80156112935780601f1061126857610100808354040283529160200191611293565b820191906000526020600020905b81548152906001019060200180831161127657829003601f168201915b505050505081526020016004820180546112ac90612058565b80601f01602080910402602001604051908101604052809291908181526020018280546112d890612058565b80156113255780601f106112fa57610100808354040283529160200191611325565b820191906000526020600020905b81548152906001019060200180831161130857829003601f168201915b50505091909252505050606001519392505050565b60016020526000908152604090208054819061135590612058565b80601f016020809104026020016040519081016040528092919081815260200182805461138190612058565b80156113ce5780601f106113a3576101008083540402835291602001916113ce565b820191906000526020600020905b8154815290600101906020018083116113b157829003601f168201915b5050505050908060010180546113e390612058565b80601f016020809104026020016040519081016040528092919081815260200182805461140f90612058565b801561145c5780601f106114315761010080835404028352916020019161145c565b820191906000526020600020905b81548152906001019060200180831161143f57829003601f168201915b50505050509080600201805461147190612058565b80601f016020809104026020016040519081016040528092919081815260200182805461149d90612058565b80156114ea5780601f106114bf576101008083540402835291602001916114ea565b820191906000526020600020905b8154815290600101906020018083116114cd57829003601f168201915b5050505050908060030180546114ff90612058565b80601f016020809104026020016040519081016040528092919081815260200182805461152b90612058565b80156115785780601f1061154d57610100808354040283529160200191611578565b820191906000526020600020905b81548152906001019060200180831161155b57829003601f168201915b50505050509080600401805461158d90612058565b80601f01602080910402602001604051908101604052809291908181526020018280546115b990612058565b80156116065780601f106115db57610100808354040283529160200191611606565b820191906000526020600020905b8154815290600101906020018083116115e957829003601f168201915b5050505050905085565b6000828152600360209081526040909120825161163592600290920191840190611c32565b505050565b6040805160a08101825286815260208082018790528183018690526060820185905260808201849052600080548152600182529290922081518051929391926116869284920190611c32565b50602082810151805161169f9260018501920190611c32565b50604082015180516116bb916002840191602090910190611c32565b50606082015180516116d7916003840191602090910190611c32565b50608082015180516116f3916004840191602090910190611c32565b5050600080546040519092507f1ed675bb725b3a8b0434b9ee956fe05e4c0e79f9dc67c3f1a717a5bb1fd88fd39190a2600080549080611732836120ac565b91905055505050505050565b60606000600160008481526020019081526020016000206040518060a001604052908160008201805461177090612058565b80601f016020809104026020016040519081016040528092919081815260200182805461179c90612058565b80156117e95780601f106117be576101008083540402835291602001916117e9565b820191906000526020600020905b8154815290600101906020018083116117cc57829003601f168201915b5050505050815260200160018201805461180290612058565b80601f016020809104026020016040519081016040528092919081815260200182805461182e90612058565b801561187b5780601f106118505761010080835404028352916020019161187b565b820191906000526020600020905b81548152906001019060200180831161185e57829003601f168201915b5050505050815260200160028201805461189490612058565b80601f01602080910402602001604051908101604052809291908181526020018280546118c090612058565b801561190d5780601f106118e25761010080835404028352916020019161190d565b820191906000526020600020905b8154815290600101906020018083116118f057829003601f168201915b5050505050815260200160038201805461192690612058565b80601f016020809104026020016040519081016040528092919081815260200182805461195290612058565b801561199f5780601f106119745761010080835404028352916020019161199f565b820191906000526020600020905b81548152906001019060200180831161198257829003601f168201915b50505050508152602001600482018054610fa690612058565b60606000600160008481526020019081526020016000206040518060a00160405290816000820180546119ea90612058565b80601f0160208091040260200160405190810160405280929190818152602001828054611a1690612058565b8015611a635780601f10611a3857610100808354040283529160200191611a63565b820191906000526020600020905b815481529060010190602001808311611a4657829003601f168201915b50505050508152602001600182018054611a7c90612058565b80601f0160208091040260200160405190810160405280929190818152602001828054611aa890612058565b8015611af55780601f10611aca57610100808354040283529160200191611af5565b820191906000526020600020905b815481529060010190602001808311611ad857829003601f168201915b50505050508152602001600282018054611b0e90612058565b80601f0160208091040260200160405190810160405280929190818152602001828054611b3a90612058565b8015611b875780601f10611b5c57610100808354040283529160200191611b87565b820191906000526020600020905b815481529060010190602001808311611b6a57829003601f168201915b50505050508152602001600382018054611ba090612058565b80601f0160208091040260200160405190810160405280929190818152602001828054611bcc90612058565b8015611c195780601f10611bee57610100808354040283529160200191611c19565b820191906000526020600020905b815481529060010190602001808311611bfc57829003601f168201915b5050505050815260200160048201805461059c90612058565b828054611c3e90612058565b90600052602060002090601f016020900481019282611c605760008555611ca6565b82601f10611c7957805160ff1916838001178555611ca6565b82800160010185558215611ca6579182015b82811115611ca6578251825591602001919060010190611c8b565b50611cb2929150611cb6565b5090565b5b80821115611cb25760008155600101611cb7565b600060208284031215611cdd57600080fd5b5035919050565b6000815180845260005b81811015611d0a57602081850181015186830182015201611cee565b81811115611d1c576000602083870101525b50601f01601f19169290920160200192915050565b606081526000611d446060830186611ce4565b8281036020840152611d568186611ce4565b90508281036040840152611d6a8185611ce4565b9695505050505050565b602081526000611d876020830184611ce4565b9392505050565b7f4e487b7100000000000000000000000000000000000000000000000000000000600052604160045260246000fd5b600082601f830112611dce57600080fd5b813567ffffffffffffffff80821115611de957611de9611d8e565b604051601f8301601f19908116603f01168101908282118183101715611e1157611e11611d8e565b81604052838152866020858801011115611e2a57600080fd5b836020870160208301376000602085830101528094505050505092915050565b600080600060608486031215611e5f57600080fd5b833567ffffffffffffffff80821115611e7757600080fd5b611e8387838801611dbd565b94506020860135915080821115611e9957600080fd5b611ea587838801611dbd565b93506040860135915080821115611ebb57600080fd5b50611ec886828701611dbd565b9150509250925092565b60a081526000611ee560a0830188611ce4565b8281036020840152611ef78188611ce4565b90508281036040840152611f0b8187611ce4565b90508281036060840152611f1f8186611ce4565b90508281036080840152611f338185611ce4565b98975050505050505050565b60008060408385031215611f5257600080fd5b82359150602083013567ffffffffffffffff811115611f7057600080fd5b611f7c85828601611dbd565b9150509250929050565b600080600080600060a08688031215611f9e57600080fd5b853567ffffffffffffffff80821115611fb657600080fd5b611fc289838a01611dbd565b96506020880135915080821115611fd857600080fd5b611fe489838a01611dbd565b95506040880135915080821115611ffa57600080fd5b61200689838a01611dbd565b9450606088013591508082111561201c57600080fd5b61202889838a01611dbd565b9350608088013591508082111561203e57600080fd5b5061204b88828901611dbd565b9150509295509295909350565b60028104600182168061206c57607f821691505b602082108114156120a6577f4e487b7100000000000000000000000000000000000000000000000000000000600052602260045260246000fd5b50919050565b60006000198214156120e7577f4e487b7100000000000000000000000000000000000000000000000000000000600052601160045260246000fd5b506001019056fea264697066735822122028b34eb617fc013680b7c16156098e273c884b60dcd115b96800318484ae27f864736f6c634300080b0033",
  "immutableReferences": {},
  "source": "pragma solidity >= 0.8.11 <= 0.8.11;\r\npragma experimental ABIEncoderV2;\r\n//GreenLand solidity code\r\ncontract GreenLand {\r\n\r\n    uint public userCount = 0; \r\n    mapping(uint => user) public userList; \r\n     struct user\r\n     {\r\n       string username;\r\n       string password;\r\n       string phone;\r\n       string email;\r\n       string buyer_seller_user_type;\r\n     }\r\n \r\n   // events \r\n   event userCreated(uint indexed _userId);\r\n   \r\n   //function  to save user details to Blockchain\r\n   function saveUser(string memory uname, string memory pass, string memory phone, string memory em, string memory user_type) public {\r\n      userList[userCount] = user(uname, pass, phone, em, user_type);\r\n      emit userCreated(userCount);\r\n      userCount++;\r\n    }\r\n\r\n     //get user count\r\n    function getUserCount()  public view returns (uint) {\r\n          return  userCount;\r\n    }\r\n\r\n    uint public transactionCount = 0; \r\n    mapping(uint => transaction) public transactionList; \r\n     struct transaction\r\n     {\r\n       string username;\r\n       string transaction_hash;       \r\n       string upload_date;\r\n     }\r\n \r\n   // events \r\n   event transactionCreated(uint indexed _transactionId);\r\n   \r\n   //function  to save transaction hash details to Blockchain\r\n   function saveTransaction(string memory uname, string memory thash, string memory ud) public {\r\n      transactionList[transactionCount] = transaction(uname, thash, ud);\r\n      emit transactionCreated(transactionCount);\r\n      transactionCount++;\r\n    }\r\n\r\n    function updateStatus(uint i, string memory status) public {\r\n       transactionList[i].upload_date= status;\r\n    }\r\n\r\n\r\n    //get transaction count\r\n    function getTransactionCount()  public view returns (uint) {\r\n          return transactionCount;\r\n    }\r\n\r\n    function getUsername(uint i) public view returns (string memory) {\r\n        user memory doc = userList[i];\r\n\treturn doc.username;\r\n    }\r\n\r\n    function getPassword(uint i) public view returns (string memory) {\r\n        user memory doc = userList[i];\r\n\treturn doc.password;\r\n    }\r\n\r\n    function getPhone(uint i) public view returns (string memory) {\r\n        user memory doc = userList[i];\r\n\treturn doc.phone;\r\n    }    \r\n\r\n    function getEmail(uint i) public view returns (string memory) {\r\n        user memory doc = userList[i];\r\n\treturn doc.email;\r\n    }\r\n\r\n    function getUserType(uint i) public view returns (string memory) {\r\n        user memory doc = userList[i];\r\n\treturn doc.buyer_seller_user_type;\r\n    }\r\n\r\n    function getBuyerSeller(uint i) public view returns (string memory) {\r\n        transaction memory doc =  transactionList[i];\r\n\treturn doc.username;\r\n    }\r\n\r\n   function getTransactionHash(uint i) public view returns (string memory) {\r\n        transaction memory doc =  transactionList[i];\r\n\treturn doc.transaction_hash;\r\n    }   \r\n    \r\n    function getDate(uint i) public view returns (string memory) {\r\n        transaction memory doc =  transactionList[i];\r\n\treturn doc.upload_date;\r\n    } \r\n     \r\n}",
  "sourcePath": "C:\\Users\\Admin\\Desktop\\Blockchain\\hello-eth\\node_modules\\.bin\\contracts\\GreenLand.sol",
  "compiler": {
    "name": "solc",
    "version": "0.8.11+commit.d7f03943.Emscripten.clang"
  },
  "schemaVersion": "3.4.4",
  "updatedAt": "2025-03-11T09:07:04.838Z",
  "networkType": "ethereum",
  "devdoc": {
    "kind": "dev",
    "methods": {},
    "version": 1
  },
  "userdoc": {
    "kind": "user",
    "methods": {},
    "version": 1
  }
}